:020000040800F2
:10000000A004002081380008F9370008FB370008F9
:1000100000000000000000000000000000000000E0
:10002000000000000000000000000000FF37000892
:10003000000000000000000001380008033800083C
:100040002F1E00082F2C00083B38000847380008F6
:10005000E1380008E3380008E5380008E738000810
:10006000E9380008EB380008ED380008EF380008E0
:10007000F1380008F3380008F5380008F7380008B0
:10008000F93800080000000000000000FB380008FC
:1000900000000000FD3800080D380008FF38000897
:1000A0000000000001390008033900080539000884
:1000B0000739000800000000093900080538000869
:1000C0000121C206D20E9140224A11607047F0B55C
:1000D00040B2002821D5204C40B20207120F083A46
:1000E0009508042255431C4A40B203071B0F083BE6
:1000F0009B0804267343D258FF238607B60F0827B0
:100100007E43B3409A438B01DBB28607B60F0827C4
:100110007E43B340134363511AE0104A40B2830850
:1001200004246343D258FF238407A40F08256C439B
:10013000A3409A438B01DBB28407A40F08256C43CC
:10014000A3401343054A40B2840804256C4313516D
:10015000F0BD000000E100E01CED00E000E400E084
:1001600070B582B000F0C2FB00F056FD0088002898
:10017000FAD081480088814901407F48018000F021
:100180004BFD0088022800D0FEE000F053FD040083
:10019000A0787B490968087000207949096848609F
:1001A0000020C0B204280EDA754909684968C0B257
:1001B0002218D278082343439A400A4370490968B9
:1001C0004A60401CEDE7E079217A090201436C485E
:1001D00000680181607A6A4909688872A07A684972
:1001E0000968C872E07A6649096808736548217B26
:1001F000405C63490968C881002061490968486119
:100200000020C0B204280EDA5D4909684969C0B20D
:100210002218527B082343439A400A4358490968ED
:100220004A61401CEDE7564800680078012818D163
:10023000BA48BB4909680860BA48B94909684860C2
:10024000B948B74909688860B848B5490968C860BD
:10025000B648B34909680861B548B14909684861B9
:100260004BE0474800680078022804D04448006802
:100270000078032818D1AF48A94909680860AE483A
:10028000A74909684860AD48A54909688860AC4835
:10029000A3490968C860AB48A14909680861AA4830
:1002A0009F490968486128E0A8489D490968086095
:1002B000A7489B4909684860CF4899490968886000
:1002C000CE4897490968C860CD48954909680861D2
:1002D000CC48934909684861CB4800680421014330
:1002E000C9480160264800680078052805D1C7483C
:1002F000008802210143C54801800025607C012857
:1003000001D10120050000F0C7FD00F05AFF01F007
:1003100016F81B480068007B81490968096888470E
:1003200017480068007801280AD115480068C07A8B
:10033000002805D1C1480068A0210143BF480160E1
:10034000A11C0F480068C089754A1268126990475D
:1003500000F072FC00780128FAD1200000F049FC7E
:10036000EDB2012D03D16E4800684069804702203C
:1003700000F054FCAFE200BF14000048FEFF000094
:1003800000000020D838000800F046FC008804284F
:1003900000D0B3E00020AA490880AA48006800788D
:1003A000042804D0A74800680078052808D1012255
:1003B000A4480068C17AA3480068C08901F0FDF92B
:1003C00000F02AFC007840077AD59E480068406912
:1003D0009C4909684968884272D2002069460870C1
:1003E00068460078002823D100F016FC00788006CB
:1003F00015D400F023FC92490988008881420ED26E
:1004000000F01CFC00888E490988401A8D49096853
:100410000989884203DB012069460870E0E700F0A3
:10042000FBFB00788006DBD5012069460870D7E722
:10043000844800680089834909680882CA4880495D
:10044000098841187F480068354A12685268904709
:100450007C48006840697B490968098940187949E6
:100460000968486176480088764909680989401812
:1004700073490880734800680078052804D17048E3
:100480000088401C6E4908806D4800888021490121
:10049000884205DB00206A490880202000F0BEFB6E
:1004A00000206946087068460078002888D16946AF
:1004B00064480068C0891A4A1268D2689047F2E717
:1004C000402000F0B1FB5F4800680078042804D0A9
:1004D0005C4800680078052808D100225948006867
:1004E000C17A58480068C08901F067F90C48006873
:1004F00040698047042000F091FBECE100F08CFBA8
:100500000088082800D083E040244E480068007826
:1005100003281FD180204000040026E0710C000851
:1005200004000020BD0C00088D0D0008F10E00082D
:10053000990E0008F90F00083B100008C7100008CA
:10054000A1110008F5110008C3110008E11200080C
:10055000071300083B4800680078052805D1A4B2BD
:100560002000022101F0B0F9040000F055FB0078F2
:10057000000736D533480068406932490968496840
:1005800088422ED22F480068048277492D4800689F
:10059000CA4A1268926890472A4800684069A4B223
:1005A0000019284909684861012526480068007833
:1005B000032801D104200500002630002900C0B224
:1005C000C9B28842D1D200F037FB00780128FAD1B5
:1005D0006548F6B240217143401800F00AFB761CD2
:1005E000EBE7402000F020FBB448006840698047FA
:1005F000082000F013FB6EE12313000869130008C4
:10060000B51700083F130008000400481404004810
:1006100000F002FB0088102800D08CE00948006838
:100620000078032853D0002080B2FF280CDCFF2183
:100630004D4A80B21154401CF6E700BF04540040FC
:100640008016002000000020A648006800780428DA
:1006500004D0A44800680078052808D10122A148E8
:100660000068C17A9F480068C08901F0A6F89D48DB
:10067000006840699B490968496888423DD29948A9
:1006800000680089974909680882374995480068D9
:100690008A4A1268526890479248006840699149B6
:1006A0000968098940188F4909684861002069462E
:1006B000C8706846C0780028D9D100A9C91C8948EB
:1006C0000068C0897D4A1268D2689047F1E7854882
:1006D0000068C08900F0DCFD00206946887068462B
:1006E0008078002809D100A9891C7E480068C0894B
:1006F000724A1268D2689047F1E7402000F094FAFD
:10070000784800680078042804D0764800680078AB
:10071000052808D1002273480068C17A7148006832
:10072000C08901F04AF86548006840698047102098
:1007300000F074FACFE000F06FFA008880287AD1D8
:100740000125684800680078012802D18020040053
:100750000FE06448006840686349884206D26148F7
:1007600000684068040004E0A004002080204001EC
:1007700004005C48006840695A4909684968884231
:100780004BD2584800680078052805D1A4B2200053
:10079000022101F099F804005248006804829E4941
:1007A00050480068454A1268926890474D48006872
:1007B0000078052801D102204443002001002200D6
:1007C00089B292B291421DD2934980B2095CFF294D
:1007D00016D04449096849690918904A118041496D
:1007E00009680978052908D18C490E8880B2022150
:1007F00001F06AF8301A894908800020050001E0FC
:10080000401CDBE7374800684069A4B2001935494D
:1008100009684861EDB2002DABD1EDB2402028430C
:1008200080B200F001FA25480068406980478020C6
:1008300000F0F4F94FE000F0EFF900888021490062
:10084000884219D100F0F6F90400A11C254800687F
:10085000C08900F06FFC00F0EFF900780128FAD1B0
:10086000200000F0C6F915480068406980478020E4
:10087000400000F0D3F92EE000F0CEF9008880218E
:100880008900884227D100F0D5F90400A11C154841
:100890000068C08900F063FC002069464870684623
:1008A000407800280CD100A9491C0E480068C08976
:1008B000024A1268D2689047F1E700BF04000020A6
:1008C000402000F0B1F95648006840698047802018
:1008D000800000F0A3F953480088012101435148EA
:1008E000018041E4000000200110000080B51120CB
:1008F0004D4908604D480068A021890301434B48D9
:1009000001604B4800688021490401434848016068
:10091000474800688001FBD5444800680221014334
:1009200042480160414800680C2101400829F9D182
:10093000404800688C21C90301433E480160902073
:10094000C0050068012101439020C00501603548C1
:100950000088012101433348018037480088032182
:10096000014335480180354800681121014333486F
:10097000016033480068102101433148016031486B
:1009800000688021890201432E48016001202E4920
:1009900008602C4800682D4901402A4801602C4815
:1009A0000068A821C9010143294801602548006861
:1009B00080214901014323480160C120800025496D
:1009C0000880B8204001244908802248008840213E
:1009D0000143204801801B4800688021C90201436F
:1009E0001848016001201D49086001201C49088049
:1009F000144800681B490140124801601620FFF7A7
:100A00005FFB01211620FFF762FB034800F02CF882
:100A100001BD024870470000A0040020801600209D
:100A2000040000201400004800200240041002408E
:100A30000010024014100240041400482014004822
:100A400030100240181002402C440140FFFFFDFF0F
:100A50000800004800300140043001402C480140AB
:100A60000C480140FFFFFBFF10B504007448046010
:100A700074480068012101437248016072480068AF
:100A80001021014370480160704B714A71497248EE
:100A900000F074FF10BD10B504002078022828D1A2
:100AA000002001006278C9B291420BD2C0B2211875
:100AB0008978634A1268694B1B88D218C0B21154F6
:100AC000401CEEE76548008861784018634908805B
:100AD0006248008880214901884200DA88E00020CD
:100AE0005E4908805E480088202101435C480180FF
:100AF0007EE00020C0B2402806DAC0B2215C594A2C
:100B0000C0B21154401CF5E75648407800280BD07D
:100B1000022810D019D304282CD01DD3062857D072
:100B200021D307285CD063E04D48008802210143AF
:100B30004B4801805CE04A48008804210143484852
:100B4000018000204549088052E04548008808217E
:100B50000143434801804BE0414800881021014394
:100B60003F48018044E03E480088802101433C48E2
:100B700001803DE001203B4908700420394948705C
:100B80003748008837498870FFF743FF00883549A8
:100B9000C870FFF73EFF008880B2000A3149087133
:100BA000FFF737FF00202F494871FFF732FF002081
:100BB0002C4988712B4800F01CF829480078400621
:100BC00005D52748008828490140254801800FE0C5
:100BD000234800888021490001432148018007E023
:100BE0001F4800888021890001431D480180FFE7DC
:100BF00010BD10B504001D48007800280BD0164821
:100C00008078032807D140222100134801F0C5F85D
:100C100000201649087010BD114870471049098816
:100C200081430F4A118070470D49098801430C4ADE
:100C3000118070470B4870470C4870470748704751
:100C400060160020181002400000014084000020BF
:100C5000280000204C000020A01400208616002050
:100C60008416002068150020BEFF000098000020B8
:100C7000974909680A220A4395490A609549096813
:100C8000802292030A4393490A609349C0B2042226
:100C900042438958914A11600121914A116091495A
:100CA0000968802292020A438E490A608E49C0B2C6
:100CB00002224243895AC34A1180704730B5C27A32
:100CC000002A13D0C04A1268920A9202BE4B1A60E0
:100CD000BD4A12684369847A08256C43E340DBB25D
:100CE0005B00A0241C431443B74A1460B64A126840
:100CF0007E4B1340B44A1360B34A1268038A847A65
:100D00001B191B041343B04A13604269837A5B1EAC
:100D100008246343DA40D2B2AC4B1A60AA4A126884
:100D200080239B011343A84A1360A94A1268D20783
:100D3000FBD501221300847ADBB2A3420FD24369B0
:100D4000847A641EA41A08256C43E340DBB29F4CEE
:100D500023609F4B1B68DB07FBD5521CEAE7028A26
:100D6000002A0BD00A78994B1A60994A1268D20768
:100D7000FBD5491C028A521E0282F0E7924A126891
:100D80008023DB011343904A136030BD30B5C27A33
:100D9000002A13D08C4A1268920A92028A4B1A6077
:100DA000894A12684369847A08256C43E340DBB2C0
:100DB0005B00A0241C431443834A1460824A1268D7
:100DC0004A4B1340804A13607F4A1268837A1B049F
:100DD00013437D4A13604269837A5B1E0824634390
:100DE000DA40D2B2794B1A60774A126880239B01AD
:100DF0001343754A1360764A1268D207FBD5012265
:100E00001300847ADBB2A3420FD24369847A641E52
:100E1000A41A08256C43E340DBB26C4C23606C4B96
:100E20001B68DB07FBD5521CEAE7674A1268802380
:100E3000DB001343644A1360634A1268654B134036
:100E4000614A1360604A1268038A1B0413435E4AB6
:100E500013605D4A126880239B0113435A4A136052
:100E60005B4A12685207FBD55B4A12680A70491C3C
:100E7000028A521E0282028A002AF1D1524A126864
:100E80008023DB011343504A1360544A1268202325
:100E90001343524A136030BD114800680121884352
:100EA0000F4908600A4800680F2188430849086014
:100EB00000200A4908600748006849490140054880
:100EC00001600848006847490140064801607047D2
:100ED000001400481C1002409038000810540040D4
:100EE0000054004018100240C0380008FFFB00FF0B
:100EF00000B5AA220A70344A1268920A9202324B52
:100F00001A60314A1268A02313432F4A13602E4AF5
:100F10001268354B13402C4A13602B4A1268802309
:100F20009B011343284A1360304A1288012313435C
:100F30002E4A13802E4A128892B2D207FAD52C4A32
:100F400012882C4B13402A4A13801F4A12688023B0
:100F50009B0113431C4A1360254A128892B2D207A0
:100F6000FAD5234A1288234B1340214A1380164A8C
:100F700012688023DB011343134A13601C4A128852
:100F800092B2D207FAD51A4A12881A4B1340184A5D
:100F90001380164A1288174B1340144A13800C4AC8
:100FA0001268D2060DD500220A700C4A126810236E
:100FB00013430A4A1360064A126801231343044A82
:100FC000136000BD284401400454004028540040F0
:100FD00018540040FFFF00FF245400401C54004000
:100FE000FFFFDFFFFFFFFDFFFFFB00FF00440140AD
:100FF00010440140FEFF00009021C9050968A822A5
:1010000012020A439021C9050A609021C9050968A6
:101010008A2252000A439021C9050A60AB49098817
:101020008A2252000A43A9490A80A9490988C0B204
:10103000C2000A43A6490A807047F8B505000C00B3
:10104000A2480088E9898843A0490880062000F06A
:10105000C1F89E480088E98901439C480180022725
:101060009A480088E989884398490880E87A0028E6
:1010700004D06869FF2801D90A2007003800C0B2EF
:1010800000F0A8F800263000A97AC0B2884208D241
:10109000686908217143C840C0B200F09BF8761C13
:1010A000F1E7288A002807D0207800F093F8641C24
:1010B000288A401E2882F4E784480088E989014391
:1010C00082480180F1BDF8B505000C0003277F4878
:1010D0000088E98988437D490880E87A002804D09F
:1010E0006869FF2801D90B2007003800C0B200F062
:1010F00071F800263000A97AC0B2884208D2686927
:1011000008217143C840C0B200F064F8761CF1E7D2
:10111000002000F05FF82070641C288A401E28829E
:10112000288A0028F4D169480088E9890143674882
:101130000180F1BD38B505000C0064480088A84363
:1011400062490880052000F045F8002000F042F8D0
:1011500020705E48008828435C49088031BD38B55E
:1011600005000C0059480088A8435849088006200B
:1011700000F030F855480088284354490880534807
:101180000088A84351490880012000F023F8207806
:1011900000F020F84D48008828434C49088031BDB4
:1011A00038B505000C002100280080B2FFF7C2FF0F
:1011B0002078C00702D50020207001E0AA2020700E
:1011C00031BD9020C0050068424901409020C00513
:1011D0000160704700B501003F4800888007FBD5DB
:1011E0003E4801703C480088C007FBD53B4800786A
:1011F000C0B200BD70B582B004000D006946200089
:1012000080B2FFF797FF31480088A0432F4908803C
:101210000620FFF7DFFF2D48008820432B49088078
:101220002900200080B2FFF785FF287869460978F9
:1012300088422AD0AA20287003206870234800889A
:10124000A043224908800420FFF7C4FF1F480088FC
:1012500020431E4908801D480088A0431B49088080
:101260009F20FFF7B7FF0026F6B2032E07DA002013
:10127000FFF7B0FFF6B2A9198870761CF4E713489F
:10128000008820431149088001E00020287073BDC8
:1012900010B504000D480088A0430C4908800620C2
:1012A000FFF798FF0948008820430849088007484D
:1012B0000088A04305490880C720FFF78BFF03483B
:1012C000008820430149088010BD00001400004838
:1012D000003001400300FFFF083001400C300140A6
:1012E0009021C9050968484A0A439021C9050A6046
:1012F000464909688022D2020A4344490A60C0B2C2
:1013000043490880704738B505000C000620414964
:1013100008700120404908702100280000F0EAF917
:1013200031BD38B505000C0005203A49087002208F
:10133000394908702100280000F0DCF931BD33483C
:10134000006836490140314801609020C0050068BE
:10135000334901409020C0050160324800680C21EB
:10136000884330490860704700B52F4A12882F4BD8
:1013700013402D4A13802E4A1288012313432C4A0E
:1013800013802C4A128892B2D207FAD5294A1288C1
:10139000264B1340274A1380274A12880243264BC4
:1013A0001A80264A128892B25206FAD5AA220A70E8
:1013B000214A12888243204B1A801E4A128892B218
:1013C000D207FAD51B4A1288184B1340194A1380CA
:1013D000194A12880243184B1A80164A128892B290
:1013E000D207FAD5134A1288104B1340114A1380C2
:1013F000114A12888243104B1A800D4A12880B4BF7
:1014000013400B4A138000BD4444000018100240F2
:1014100028480140881600208D160020FFFFFBFFA2
:101420003333FFFF000400480C480140FEFF00007A
:1014300000480140104801401400004810000048D6
:1014400010B5C6480088A4490140C4480180A3489B
:1014500001787C200840A149097809066FD4C0B200
:101460000100082906D010290ED0202923D04029B8
:1014700037D057E0BA490988994A12888023134324
:101480000B43B7490B804DE0964909780122964BF2
:101490001B785B1E9A40114206D0B1490988802210
:1014A0000A43AF490A8005E0AD4909888F4A0A40DE
:1014B000AB490A8036E08E4909688B4A1278521E81
:1014C000D140C90706D5A649098880220A43A44904
:1014D0000A8005E0A2490988844A0A40A0490A8096
:1014E00020E07E49097889071BD57F4909787E4A23
:1014F0001278092A00DB0839AC4A126812780123F5
:101500004C1EA3401A4206D0954A128880231343EA
:10151000934A138005E0924A1288744B1340904A14
:101520001380FFE76D49097880220A436B490A70EE
:101530008B49098820220A4389490A80CAE06A49FE
:101540000978491E684A1170C0B20100042908D008
:1015500008291AD010292CD020293FD0402952D058
:10156000ACE06149097800290ED101215E4A117071
:101570005A490978FB220A4058490A7057490978A4
:1015800008220A4355490A7098E05749097800290A
:101590000ED10221544A117050490978F7220A40AD
:1015A0004E490A704D49097810220A434B490A7086
:1015B00084E04D49097800290FD17D4909784A4ACC
:1015C000117046490978EF220A4044490A7043499C
:1015D000097820220A4341490A706FE0424909789C
:1015E00000290FD19F4909783F4A11703B4909787A
:1015F000DF220A4039490A703849097840220A43F3
:1016000036490A705AE035490978C90713D5364971
:101610000978354A1278082A00DB0839924A12887C
:10162000520608D5614A1268127801238B40134391
:101630005E4909680B702C490978002928D18B492B
:101640000978491E894A117088490978002911D002
:1016500084490978244A117054490968491C534A3D
:1016600011601E490978C90727D500214F4A126821
:10167000117022E03A490988194A12889143384A80
:1016800011807B490988144A0A4079490A8014E08C
:1016900015490978082910D17249097810290CD107
:1016A00042490968491C414A11600C490978C90737
:1016B00003D500213D4A12681170FFE707490978F8
:1016C0004906490E054A117025490988694A0A40A8
:1016D00023490A8010BD0000FEFF0000881600208C
:1016E000821600208D1600208B1600207FFF000040
:1016F0005816002000B5028A5C4B1A70C27A2C4B37
:101700001A7042695C4B1A6001225C4B1A70274ABE
:1017100011605B4A1278D20703D50022234B1B6865
:101720001A70C289574B1A800278042A03D1082202
:101730004C4B1A7002E010224A4B1A700122524B95
:101740001A804B4A128801231343494A1380484A9E
:10175000128892B2D207FAD400BD000010480140AE
:101760001400004800B5494800882021014347483B
:1017700001804748008880B2C007FAD544480088F5
:1017800044490140424801804048008839490140AD
:101790003E4801803E48008880B2C007FAD53C48E8
:1017A00000883C4901403A48018000BD5C16002099
:1017B0008A160020AA220A707047F8B504000D00AE
:1017C000170031480088334901402F4801802848DC
:1017D00000880121014326480180FFF7C3FF2B4801
:1017E000008880212143014328480180FFF7BAFF88
:1017F0002648008828490140244801800026F6B286
:10180000022E03DAFFF7AEFF761CF8E7FFB2012FD6
:1018100005D11E480088802101431C480180002614
:1018200030002900C0B2C9B2884203D2FFF79AFF44
:10183000761CF5E715480088A04314490880FFF797
:1018400091FF0B4800881349014009480180104866
:101850000088104901400E48018001200A49088093
:10186000F1BD00008C1600201000004889160020F1
:1018700000480140DFFF0000581600208B160020B2
:1018800088160020821600200C48014014000048F1
:1018900010480140FEFF00007FFF0000F4460028D2
:1018A00004D4494200F013F8404260474042002906
:1018B00005D45FD000F00BF84042494260474942EE
:1018C00000F005F84942604703460B43E6D4002286
:1018D000030A8B420BD203098B4219D243088B4275
:1018E0002ED2411A00D20146524110467047FF22C3
:1018F00009023FD012068B4205D3121209028B4215
:1019000001D31212090203098B4219D300E0090A1C
:10191000C3098B4201D3CB01C01A524183098B42C8
:1019200001D38B01C01A524143098B4201D34B01B1
:10193000C01A524103098B4201D30B01C01A524114
:10194000C3088B4201D3CB00C01A524183088B429B
:1019500001D38B00C01A524143088B4201D34B0084
:10196000C01A5241884200D3401A5241CFD2014698
:101970001046704708B500F059FA08BDF8B50400E4
:101980000F0015001E00200000F09BFA200000F060
:1019900016F8B8202550BC202650C020275000F053
:1019A00008FB200000F05CFBBC202058006880474A
:1019B000200000F0BDFA200000F0C2FDF1BD0100E2
:1019C000002070471CB504006946200001F07AF839
:1019D00068460078C006C00EC0B2002803D00228B6
:1019E0000BD005D30EE06946200000F0BFFD10E0EB
:1019F0006946200000F0F8FD0BE06946200000F089
:101A00001BFE06E06846017880200140200000F0BF
:101A100000FD002016BD70B504000E00F6B2002EC9
:101A20002BD12000683005006078032834D1E868A5
:101A3000E969884210D2E869E968401AE861E86912
:101A4000E968884201D2EA6900E0EA6892B229694D
:101A5000200001F0C1F81FE0B820205800690028DC
:101A600007D0A078032804D12000B8216158096963
:101A70008847200001F0BFF80EE0B82020588069A8
:101A8000002809D0A078032806D13100C9B220006F
:101A9000B822A25892699047002070BD70B504002A
:101AA0000E00F6B2002E4CD12000183005006078F0
:101AB000022835D1E868E96988420AD2E869E9680C
:101AC000401AE861EA6992B22969200001F05EF8E3
:101AD00046E0286AE968FFF7FAFE00290FD1286A74
:101AE000E96888420BD3286A696A884207D20022D3
:101AF0000021200001F04AF80020686230E0B820A0
:101B00002058C068002807D0A078032804D12000FE
:101B1000B8216158C9688847200001F07AF81FE0B1
:101B2000607804281CD10F480068002818D00D48A0
:101B30000168C9B2200000F0E1FC002009490860FA
:101B40000EE0B82020584069002809D0A07803286A
:101B500006D13100C9B22000B822A258526990477C
:101B6000002070BD7C16002010B504004023002228
:101B70000021200000F096FA80230022802120001E
:101B800000F090FA002340220021200000F0B1FA7A
:101B9000002340228021200000F0ABFA0120A07039
:101BA000E068C0B2BC21615849688847002010BD78
:101BB00010B50400BC20205800698047E078A07070
:101BC000002010BD10B50400A078E0700420A070C3
:101BD000BC202058C0688047002010BD10B504000C
:101BE000B8202058C069002804D02000B8216158CE
:101BF000C9698847002010BD38B505000C002100D8
:101C0000C9B22800B822AA5812689047BC202858A8
:101C100080688047002032BD38B505000C002100E7
:101C2000C9B22800B822AA5852689047002032BD95
:101C300038B504000D00A8235B000022812120009C
:101C400000F030FAB0235B0000220121200000F0F8
:101C500029FA032340228121200000F04AFA0323BD
:101C600040220121200000F044FA4023614A012172
:101C7000200000F03DFB002032BD38B504000D000F
:101C80008121200000F0DFFA0121200000F0DBFAC2
:101C9000002032BDF8B506000D000020694608702E
:101CA00000240027287860210140C9B200293CD0D7
:101CB000202970D16878022819D003280AD0092871
:101CC0001BD00A280CD00B2828D16888C0B24A49FA
:101CD000086029E001224849300000F042FF23E07B
:101CE000688880B2000AC0B2444908601CE0012242
:101CF0004249300000F035FF16E0012040490870ED
:101D00006888404908706846E9880170684602782A
:101D100092B23849300000F048FF05E02900300059
:101D200000F0E8FE022037E035E06878062804D0AD
:101D30000A2826D00B282AD02DE0688880B2000A15
:101D400080B2222808D1E888092801DB082400E0B5
:101D5000EC882D4807000DE0688880B2000A80B248
:101D6000212807D129480700E8880A2801DB09242F
:101D700000E0EC88220092B23900300000F0F1FE61
:101D800009E001222249300000F0EBFE03E0688800
:101D9000C0B21F4908600020F2BD70B505000E00FA
:101DA0001400A878032806D1A4B2230032008121B0
:101DB000280000F0D7FA002070BD0200292008801A
:101DC0001448704700B50200C9B2012902D10120B0
:101DD000114B1870002000BD38B504000D000548F7
:101DE000FEF759FE4023034A0121200000F080FA4B
:101DF000002032BDA81500206C16002070160020AF
:101E00008F1600208E160020C8380008963700086C
:101E10006816002084370008980000200100002088
:101E20007047704770477047704770477047FEE7CC
:101E30000121C206D20E9140364A11607047F0B5BA
:101E400040B2002821D5344C40B20207120F083AA4
:101E5000950804225543304A40B203071B0F083B44
:101E60009B0804267343D258FF238607B60F082722
:101E70007E43B3409A438B01DBB28607B60F082737
:101E80007E43B340134363511AE0244A40B28308AF
:101E900004246343D258FF238407A40F08256C430E
:101EA000A3409A438B01DBB28407A40F08256C433F
:101EB000A3401343194A40B2840804256C431351CC
:101EC000F0BD17490968802212040A4314490A60C8
:101ED00013490968802212050A4311490A60114911
:101EE0000968114A0A400F490A600E4909688022B0
:101EF00092050A430B490A600C49096840220A43CB
:101F00000A490A600949096820220A4307490A6008
:101F10007047000000E100E01CED00E000E400E09C
:101F20001C100240046C0040FFFFFFCF006C00401B
:101F300010B5040001211F20FFF781FF1F20FFF7CC
:101F400077FF10BD0200122008802648704702006B
:101F5000042008802448704738B504000D002A008A
:101F60002249234800F0CEFD204832BD38B5040098
:101F70000D002A001D491F4800F0C4FD1B4832BD5A
:101F800002001A2008801C48704738B504000D0074
:101F90002A001649194800F0B5FD144832BD38B57D
:101FA00004000D002A001149154800F0ABFD0F4850
:101FB00032BD70B51348006804001348006806007D
:101FC0001248006805006419002C09D00822104945
:101FD000200000F021F804220E49300000F01CF827
:101FE00070BD00005C380008DC380008E8150020EF
:101FF000D03800089C38000868000020A838000885
:1020000070380008ACF7FF1FB0F7FF1FB4F7FF1FD1
:102010006A0000207A00002030B50023002423004D
:102020001C001500E4B2EDB2AC4218D2040F0A2C29
:1020300006D2040F3034DBB202255D434C5505E077
:10204000040F3734DBB202255D434C5500010024F8
:10205000DBB202255D434D196C705B1CE0E730BDBF
:1020600010B504000120A070002020710020A060A5
:102070000120E060012000F0DBFD002000F0D8FD31
:10208000002000F0D9FD002000F0DAFDBF200002A2
:10209000034908600248006880B200F0C9FD10BD25
:1020A0006416002070B5040089B2080608D589B20C
:1020B0004806400E2826704320181830050007E017
:1020C00089B24806400E2826704320186830050063
:1020D00092B2002A04D10020A8721800A88006E05D
:1020E0000120A8721800E8801800000C2881002048
:1020F00070BDF8B506000D001700ADB228060AD570
:10210000ADB26806400E282148433018183004004C
:102110000120607009E0ADB26806400E28214843F6
:1021200030186830040000206070BFB2E760684675
:102130000078E07028004006400E207020780028CB
:1021400005D1002060620020E061002020620020B4
:102150002061002060610020A0610020A070E07874
:10216000002805D0022809D013D303280BD015E08E
:1021700080218900207800F06FFD0FE00021207899
:1021800000F06AFD0AE0C021C900207800F064FD7B
:1021900004E08021C900207800F05EFDA07A0028CC
:1021A00020D1607800280BD0A188207800F010FEA4
:1021B000207800F0F6FD2021207800F05EFD40E060
:1021C000A188207800F018FEE16889B2207800F03C
:1021D0002DFE207800F0CEFDC0218901207800F08E
:1021E00068FD2EE0207800F082FD2289E1882078C9
:1021F00000F05CFE6078002812D1207800F0BAFD73
:10220000207800F0CEFD207800F0A4FDC0218901E7
:10221000207800F04EFD0021207800F02EFD10E027
:10222000207800F0A7FD207800F0BBFD207800F0BA
:102230007DFD0021207800F020FD0021207800F0B5
:1022400038FD0020F2BD70B506000C00E4B2200697
:1022500008D5E4B26006400E2821484330181830F3
:10226000050007E0E4B26006400E2821484330181C
:1022700068300500A87A002812D16878002807D0B5
:10228000287800F08EFD0021287800F0F6FC2DE083
:10229000287800F06FFD0021287800F00AFD25E085
:1022A0006878002811D1287800F064FD287800F0C3
:1022B00078FD287800F04EFD0021287800F0F9FC28
:1022C0000021287800F0D9FC10E0287800F052FDB9
:1022D000287800F066FD287800F028FD0021287895
:1022E00000F0CBFC0021287800F0E3FC002070BD5A
:1022F000F8B582B007000E00150000200090F6B27D
:102300007006400E282148433818683004002561C3
:102310006846008960610020A061E06861698842C8
:1023200006D2E068009060690099401A606103E09D
:102330006069009000206061A07A002805D10099B2
:1023400089B2207800F072FD05E0009A92B26178BF
:10235000207800F0D3FDC0218901207800F0A9FC8D
:102360000020FEBDF9B581B00E00170000200090DE
:102370000198F6B27106490E2822514340181830D0
:1023800004007006400E20702761029860610020F2
:10239000A061E0686169884206D2E06800906069E7
:1023A0000099401A606103E060690090002060615C
:1023B000A07A00280BD1009A92B2A188206900F07F
:1023C00050FE009989B2207800F025FD1BE0002521
:1023D000009A92B26178207800F090FD207800F0A9
:1023E00034FC400602D52089050001E0E0880500A4
:1023F000009A92B2290089B2206900F032FE617819
:10240000207800F009FE3021207800F036FC002012
:10241000FEBD70B506000C00E4B2200608D5E4B29B
:102420006006400E2821484330181830050005E0AA
:10243000E4B228206043301868300500287800286E
:102440001BD144492A7804235A43895889B2424A05
:102450000A40100001008020400148400100102087
:10246000484080B23D4901433A482A7804235A4300
:1024700081500120A870002011E06878002806D063
:102480000120A8701021287800F0F7FB06E0012059
:10249000A87080214901287800F00BFC002070BD55
:1024A00070B506000C00E4B2200608D5E4B2600660
:1024B000400E2821484330181830050005E0E4B2EA
:1024C000282060433018683005006878002809D05B
:1024D000287800F066FC3021287800F0CEFB002040
:1024E000A87009E0287800F045FCC021890128780F
:1024F00000F0DFFB0020A870002070BD70B5002246
:10250000017100231A00022A14D2124B1400E4B203
:1025100004256C431B59124C1C401300DBB22343AF
:102520000E4C1C430B4B1500EDB2042675435C5159
:10253000521CE8E7C9B280230B430A4C236070BDEC
:1025400009490968802212020A4307490A600121E9
:1025500081707047005C0040BFBF000080800000B9
:102560008F8F00004C5C0040585C004070B5040048
:102570000E0000257078002820D0012828D00328DC
:1025800021D005280BD0062804D0082811D009280E
:102590000AD022E03100200000F0FDF821E03100F7
:1025A000200000F098F91CE03100200000F0BDF997
:1025B00017E03100200000F017FA12E0310020008F
:1025C00000F036FA0DE03100200000F04EFA08E08D
:1025D0003100200000F05BFA03E03100200000F041
:1025E00089FA2800C0B270BD70B504000E00002545
:1025F000A078032819D1B088C0B2022810DA3100BF
:102600002000B822A258926890470500F088002860
:102610000AD1EDB2002D07D1200000F0ECFA03E062
:102620003100200000F066FA03E03100200000F0E5
:1026300061FA2800C0B270BDF8B504000E00002099
:1026400000900027B08805007078002862D001282B
:1026500031D0032800D09BE0A078022802D00328C4
:102660000CD023E0EDB2002D07D0EDB2802D04D0C8
:102670002900C9B22000FFF7CCFE1BE070880028BB
:102680000AD1EDB2002D07D0EDB2802D04D0290083
:10269000C9B22000FFF7BDFE31002000B822A258C9
:1026A00092689047200000F0A6FA03E03100200075
:1026B00000F020FA6CE0A078022802D003280CD0A9
:1026C00023E0EDB2002D07D0EDB2802D04D029001B
:1026D000C9B22000FFF79DFE1BE0708800280AD1D8
:1026E000EDB2002D07D0EDB2802D04D02900C9B283
:1026F0002000FFF7D5FE31002000B822A2589268D2
:102700009047200000F077FA03E03100200000F04D
:10271000F1F93DE0A078022802D003280CD032E085
:10272000EDB2002D07D0EDB2802D04D02900C9B242
:102730002000FFF76EFE2AE0EDB228060ED5EDB2BE
:102740006806400E282148432018807E002802D0C9
:102750000120009011E0002000900EE028060CD42B
:10276000EDB22820684320186A21405C002802D07E
:102770000120009001E00020009002226946200024
:1027800000F0EFF903E03100200000F0B3F9FFE7BB
:102790003800C0B2F2BD70B582B004000D00688888
:1027A00080B2000AC0B2012808D0022815D0032840
:1027B0001ED0062865D0072868D06CE06946E0681E
:1027C000C0B2C022A258126890470600E88840288C
:1027D00002D108206946088062E06946E068C0B21C
:1027E000B822A258126A90470600C420265057E02B
:1027F0006888C0B2002808D0022818D00ED3042858
:1028000027D01DD305282DD035E06946E068C0B239
:10281000C022A25852689047060031E06946E0683D
:10282000C0B2C022A25892689047060028E06946CC
:10283000E068C0B2C022A258D268904706001FE0EC
:102840006946E068C0B2C022A258126990470600EB
:1028500016E06946E068C0B2C022A25852699047AB
:1028600006000DE06946E068C0B2C022A258926935
:102870009047060004E02900200000F03BF929E021
:102880000EE02900200000F035F923E029002000A7
:1028900000F030F91EE02900200000F02BF919E0CB
:1028A00068460088002815D0E888002812D06846BD
:1028B0000088E988884204D2684600886946088012
:1028C00002E0E888694608806846028831002000F6
:1028D00000F047F973BD70B504000E00B088002801
:1028E0001ED1F08800281BD1B0784006400E0500AC
:1028F000A078032804D13100200000F0FBF813E099
:102900002571EDB236480560200000F074F9EDB293
:10291000002D02D00220A07006E00120A07003E08C
:102920003100200000F0E6F870BD38B504000D005D
:1029300068882C4908702B480078022804DB29009D
:10294000200000F0D7F84AE0A078022802D003283F
:1029500016D040E02348007800280DD021480078A8
:1029600020700320A0701F4801782000FFF744F971
:10297000200000F040F902E0200000F03CF92EE0D9
:102980001848007800280DD10220A0701548007862
:102990002070144801782000FFF73EF9200000F075
:1029A0002AF917E00F480078217888420FD0217863
:1029B0002000FFF731F90B480078207009480178B2
:1029C0002000FFF719F9200000F015F902E02000BF
:1029D00000F011F903E02900200000F08BF831BD70
:1029E0007C1600209016002038B504000D00002051
:1029F0000090E888012804D02900200000F07AF82F
:102A000015E0A078022802D0032806D00BE00122AE
:102A10006946200000F0A5F809E00122210020000D
:102A200000F09FF803E02900200000F063F831BDBA
:102A300038B504000D0000200090A078801E012809
:102A40000ED801200090A068002803D00098022131
:102A50000143009102226946200000F082F803E061
:102A60002900200000F046F831BD38B505000C0003
:102A7000608801280AD10120A86021002800B8221E
:102A8000AA5892689047280000F0B5F831BD38B5D3
:102A900005000C00A878801E01280ED86088012847
:102AA0000AD10020A86021002800B822AA58926804
:102AB0009047280000F09FF803E02100280000F074
:102AC00019F831BD027C0A70427C4A70827CC37C5A
:102AD0001B02D2184A80027D437D1B02D2188A80D5
:102AE000827DC37D1B02D218CA80CA88C2630122BC
:102AF0004270704738B504000D0000212000FFF738
:102B000088FC31BDF8B504000D0017000026002C2C
:102B10001BD0200000F01AF802214843801C3880A6
:102B20003888F6B2A855761C0320F6B2A855761C54
:102B30002078002809D02078F6B2A855641C761CAD
:102B40000020F6B2A855761CF2E7F1BD00B50100F1
:102B500000200A78002A02D0401C491CF9E7C0B2C4
:102B600000BDF8B505000F0014000026A4B2AC6348
:102B7000A4B26C6302206870A4B223003A00002162
:102B80002800FFF7EFFB3000C0B2F2BDF8B5070038
:102B90000E0014000025A4B22300320000213800EA
:102BA000FFF7E0FB2800C0B2F2BDF8B505000F004A
:102BB00014000026A4B288202C50A4B284202C50EB
:102BC0000320687023009BB23A0000212800FFF721
:102BD0008FFB3000C0B2F2BDF8B507000E00140044
:102BE000002523009BB2320000213800FFF780FB54
:102BF0002800C0B2F2BD38B505000024042068707A
:102C00000023002200212800FFF7ACFB2000C0B207
:102C100032BD38B50500002405206870002300226D
:102C200000212800FFF764FB2000C0B232BDFEE7A0
:102C300080B238490860704780B2384908607047F0
:102C400033490140374A116070474049C0B20422FD
:102C50005043085880B2704710B43C4AC0B20423B5
:102C60004343D2582C4B13400B439BB2374AC0B25C
:102C700004244443135110BC704710B5334BC0B209
:102C8000042444431B59264C1C402200CB0602D589
:102C9000130010225A408B0602D5130020225A40FE
:102CA000214B13439BB2294AC0B20424444313511D
:102CB00010BD10B5254BC0B2042444431B59244C0D
:102CC0001C402200CB0403D51300802252015A403D
:102CD0008B0403D51300802292015A40124B1343F8
:102CE0009BB21A4AC0B204244443135110BD174981
:102CF000C0B20422424389583D4A0A403D4911432B
:102D000089B2124AC0B204234343D1507047000035
:102D1000F8FF0000405C00408F890000445C0040E8
:102D2000BF8F0000505C0040808000000749C0B2A7
:102D30000422424389582E4A0A406C491143034AEF
:102D4000C0B204234343D15070470000005C0040F0
:102D50008FBF00006749C0B2042242438958244A09
:102D60000A4063491143634AC0B204234343D1502C
:102D70007047000000B55F49C0B204224243895841
:102D800049040DD55B49C0B2042242438958184A10
:102D90000A4056491143574AC0B204234343D15015
:102DA00000BD00B55349C0B20422424389584906C8
:102DB0000DD55049C0B20422424389580C4A0A40FA
:102DC0004B4911434B4AC0B204234343D15000BD89
:102DD000494A126892B2C0B208234343D2187C4BCE
:102DE000D2180B009BB25B085B0013807047000099
:102DF0008F8F0000808100003F4A126892B2C0B2FB
:102E000008234343D218734BD2180B009BB25B08C4
:102E10005B0013807047384A126892B2C0B2082330
:102E20004343D2186C4BD2181180704710B5324B07
:102E30001B689BB2C0B2082444431B196E4C1B197B
:102E40001A0089B23F290CDB0C00A4B264092300EC
:102E5000CC0600D15B1E9B02802424021C431480FC
:102E600008E00C00A4B264082300CC0700D55B1C6A
:102E70009B02138010BD2049096889B2C0B20822A4
:102E8000504308185449401800888005800D704749
:102E90001949096889B2C0B2082250430818564936
:102EA000401800888005800D7047000010B4124B58
:102EB0001B689BB2C0B2082444431B19444C1B1925
:102EC0000C00A4B2640864001C800B4B1B689BB20E
:102ED000C0B2082444431B193E4C1B191400A4B271
:102EE000640864001C8010BC7047000080C00000B3
:102EF000C0800000005C0040505C004030B5C9B2AA
:102F0000002923D1654C2468A4B2C0B208254543EA
:102F10006419314D6419230092B23F2A0CDB15006D
:102F2000ADB26D092C00D50600D1641EA402802527
:102F30002D0225431D8016E01500ADB26D082C0052
:102F4000D50700D5641CA4021C800CE0C9B201297D
:102F500009D1524B1B689BB2C0B2082444431B19D1
:102F60001D4C1B191A80C9B2002923D14B4C24686F
:102F7000A4B2C0B2082545436419544D6419230016
:102F800092B23F2A0CDB1500ADB26D092C00D506BC
:102F900000D1641EA40280252D0225431D8016E069
:102FA0001500ADB26D082C00D50700D5641CA40235
:102FB0001C800CE0C9B2012909D1384B1B689BB2B7
:102FC000C0B2082444431B19404C1B191A8030BD61
:102FD0000060004004600040026000402F49096822
:102FE00089B2C0B20822504308182D494018008801
:102FF0008005800D70470000066000402749096881
:1030000089B2C0B2082250430818304940180088DD
:103010008005800D7047000010B5C9B200290ED19F
:103020002B4AC0B204234343D2582A4B13402A4AA6
:103030001A43274BC0B2042444431A5110E0C9B2CA
:1030400001290DD1224AC0B204234343D258214B57
:103050001340224A1A431E4BC0B2042444431A515F
:1030600010BDF3B592B21100491C491000916E4693
:10307000B6881B4FF6193500009E310000290BD091
:1030800006783300401C067836021E4334002C803C
:10309000AD1C401C491EF1E7F3BD0000505C004030
:1030A0000260004070B592B213005B1C5B1089B2E5
:1030B0000B4E8E1935001C00002C06D02E88068081
:1030C000AD1C401C401C641EF6E770BD066000404D
:1030D000005C00408F8F0000C080000080C00000B6
:1030E0000060004070B582B000250020694608806D
:1030F000BC48006869464880000400D470E1684616
:1031000040880007000F0600F6B2002E00D090E0C5
:1031100068464088C00617D4B348006880B2B349F7
:103120000140B1480160B24804002078FFF7A3FED7
:10313000A0612069A169401820610021AD48AE4A14
:10314000126852689047D3E7AC480400A64800686C
:103150006946088068460088000515D52078FFF785
:1031600097FEA061A26992B2A188A548FFF79AFFD5
:103170009D480068A34901409B4801609D489E49C5
:10318000096889688847B3E7684600880004AFD5B6
:10319000954800689B490140934801602078FFF7FB
:1031A00077FEA061A069002809D0A26992B2A18827
:1031B0002069FFF777FF2069A1694018206100218D
:1031C0008C488D4A1268126890478F49096889B205
:1031D0008E4A89180800E2683F2A0ED3E268520935
:1031E0001100227BD206D20E002A00D1491E89028C
:1031F000802212020A43028008E0E26852081100AD
:10320000227BD20700D5491C8902018076490968D2
:103210007F4A0A4010000100802040014840010020
:103220008020800148407B49014389B26E4801609B
:103230005EE76D48F6B20421714340586946088044
:1032400068460088000464D56748F6B204217143DB
:1032500040586C4901406448F6B2042272438150E0
:103260006448F6B228217143401868300400A07AFF
:1032700000280DD12078FFF70BFE0500ADB2002D20
:103280002AD02A0092B2A1882069FFF70BFF23E021
:103290002078FFF7DAFC40040DD52078FFF79EFE7A
:1032A0000500ADB2002D13D02A0092B2E18820694A
:1032B000FFF7F8FE0CE02078FFF7A0FE0500ADB2A6
:1032C000002D05D02A0092B221892069FFF7EAFE7D
:1032D00000212078FFF7A0FEA069ADB24019A061DF
:1032E0002069ADB2401920616069002803D0ADB2F9
:1032F000E068854206D221783E483F4A126812684B
:10330000904706E063699BB2226921783948FEF74D
:10331000EFFF68460088000600D4E9E63548F6B2BB
:10332000282171434018183004002F48F6B20421B8
:103330007143405880B22D4901402B48F6B2042217
:1033400072438150A07A00280DD12078FFF793FDB9
:10335000A061A06900282AD0A26992B2A188206940
:10336000FFF77FFE23E02078FFF76FFC40060DD5C6
:103370002078FFF733FEA061A069002813D0A2696E
:1033800092B2E1882069FFF76CFE0CE02078FFF72D
:1033900035FEA061A069002805D0A26992B22189FA
:1033A0002069FFF75EFE01212078FFF735FE2078C7
:1033B000FFF761FDA0612069A16940182061606983
:1033C000002806D121780B480B4A126852689047B2
:1033D0008EE66369226921780648FEF7C3FF87E617
:1033E00073BD0000445C0040005C00400F8F000093
:1033F000B8140020A014002024000020081500208C
:10340000B01400208F0F0000505C004006600040A8
:103410008FBF00008080000080B5002069460880D2
:103420003F48006869460880684600888021090294
:1034300001403C48006889B2014201D0FFF752FECA
:10344000684600888021C90001403648006889B27A
:1034500001420BD034483249086034483449096885
:103460000969884700213148FFF748F86846008815
:103470008021890101402B48006889B2014202D0B5
:103480002C4827490860684600888021490101408E
:103490002448006889B201420AD0274820490860C0
:1034A00022482349096889698847002000F06DF89F
:1034B000684600888021090101401A48006889B2E5
:1034C000014209D01D481649086018481849096882
:1034D0004969884700F038F86846008880218900EB
:1034E00001401048006889B2014207D014480C49D5
:1034F00008600E480E490968C96888476846008810
:103500008021490001400748006889B2014205D086
:103510000C4803490860072000F037F801BD00009F
:10352000445C004064160020FFFB0000A014002053
:1035300024000020FFDF0000FFEF0000FFF7000085
:10354000FFFD0000FFFE0000464909680800010079
:103550000820084380B243490860424909680800CE
:1035600001000420084380B23E49086070473D498D
:103570000968080001003C48084080B239490860E9
:10358000BF210902374A1160704738B50400E4B220
:10359000072C01D03548047034480078002808D042
:1035A00002281DD013D304282ED020D305283BD0C9
:1035B00053E02F480068002805D1FFF7D8FF062008
:1035C0002A49087002E005202849087048E0FFF702
:1035D000CEFF0420254908700120254908603FE0FE
:1035E00002202249487003202049087038E01F4813
:1035F0004078401E1D4948701C484078002802D180
:1036000004201A4908702BE01648006805002800BD
:1036100010250543ADB21348056005201349087015
:103620000A20124948701BE010484078401E0F499C
:1036300048700E48407800280ED10A4800680500FE
:1036400028000C4D0540ADB206480560062007492C
:10365000087000200649086002E00620034908704F
:1036600031BD0000405C0040FBFF000074160020EC
:1036700078160020EFFF000019480068012101437F
:103680001748016017480068174901401548016054
:10369000134800681549014011480160104800684E
:1036A000134901400E4801600E480068114901406D
:1036B0000C480160104800680F2188430E490860DB
:1036C0000E4800680E4901400C4801600D48006832
:1036D000012188430B49086000200B4908607047AE
:1036E00000100240041002400CB8FF08FFFFF6FE75
:1036F000FFFFFBFFFFFFC0FF2C1002403010024015
:103700002CFEFFFF341002400810024070B401216B
:10371000002213E00468001D0C4202D04D466D1ECD
:1037200064192260241D1B1F042BFAD225009E075A
:1037300001D52280AD1C0B4000D02A700368001D0B
:10374000002BE7D170BC704730B501684118446860
:1037500062088A188368E40701D54C461B19914218
:1037600001D10C3030BD0C7864B2491C0D78491C75
:103770001D705B1C002C02D5641CF9D1EFE7641EA0
:10378000F4D5ECE709022900010100C03209040068
:1037900000020300000009211101000122080007B6
:1037A00005810340000107050103400001000000FE
:1037B00010B5074979441831064C7C44163404E0AE
:1037C000081D0A68891888470100A142F8D110BD78
:1037D000080000002400000035FFFFFFF411000086
:1037E000A00400200000000061FFFFFF1E01000098
:1037F0000201000000000020704700B5FEE770479E
:103800007047704780B5FFF707FE01BD80B5FDF733
:1038100017FE01BD00F00BF8002801D0FFF7C8FF2C
:103820000020C046C046FCF79BFC00F002F80120D7
:10383000704780B500F002F801BDFEE70746384644
:1038400000F002F8FBE7FEE780B5C046C046024A3A
:1038500011001820ABBEFBE7260002001201000297
:1038600000000040830410A20002010203010000D6
:1038700048494420496E74657266616365000000C2
:10388000014880470148004779360008B5380008EC
:10389000130F42B00903335003011050436869709D
:1038A000264469700000000048494420436F6E665A
:1038B00069670000C046C046C046C046FFF7AAFF81
:1038C000E02EB80BD007000006FF000901A101C0DF
:1038D000436172644C61620010080402040309042D
:1038E000FEE7FEE7FEE7FEE7FEE7FEE7FEE7FEE7B0
:1038F000FEE7FEE7FEE7FEE7FEE7FEE7FEE7FEE7A0
:10390000FEE7FEE7FEE7FEE7FEE73328160020406D
:10391000160020171A00089D1A0008C5190008DDB6
:103920001B0008691B0008C51B0008B11B00080824
:10393000000020311C00087B1C0008951C0008FCBE
:10394000000B1D1E0008C51D0008D91D0008FC0045
:1039500021BB1D0008451F00084F1F00086D1F00F8
:1039600008591F0008811F00088B1F00089F1F00B7
:10397000081A03E60014231E0008251E0008271E4F
:0B3980000008291E00082B1E00080193
:04000005080038B502
:00000001FF
